:100000000C9462000C948A000C948A000C948A0070
:100010000C948A000C948A000C948A000C948A0038
:100020000C948A000C948A000C948A000C94F205BB
:100030000C948A000C948A000C948A000C948A0018
:100040000C9422040C948A000C9492040C946C047A
:100050000C948A000C948A000C948A000C948A00F8
:100060000C94C4040C948A000000000023002600B5
:10007000290000000000240027002A0000000000E2
:10008000250028002B0004040404040404040202D4
:100090000202020203030303030301020408102007
:1000A0004080010204081020010204081020000012
:1000B0000008000201000003040700000000000027
:1000C0000000B30611241FBECFEFD8E0DEBFCDBFC6
:1000D00011E0A0E0B1E0E8E6F1E102C005900D9288
:1000E000AC32B107D9F722E0ACE2B1E001C01D9219
:1000F000AD39B207E1F710E0C2E6D0E004C02197C5
:10010000FE010E94A708C136D107C9F70E94230744
:100110000C94B2080C940000833081F028F48130F4
:1001200099F08230A1F008958730A9F08830B9F0B5
:100130008430D1F4809180008F7D03C08091800055
:100140008F7780938000089584B58F7702C084B53F
:100150008F7D84BD08958091B0008F7703C080911A
:10016000B0008F7D8093B00008951F93CF93DF93ED
:10017000282F30E0F901E255FF4F8491F901E6564E
:10018000FF4FD491F901EA57FF4FC491CC23C1F03E
:10019000162F81110E948C00EC2FF0E0EE0FFF1F54
:1001A000E458FF4FA591B4919FB7F894111104C082
:1001B0008C91D095D82302C0EC91DE2BDC939FBFAD
:1001C000DF91CF911F910895CF93DF9390E0FC01D1
:1001D000E656FF4F2491FC01EA57FF4F8491882394
:1001E00061F190E0880F991FFC01EE58FF4FC59117
:1001F000D491FC01E458FF4FA591B491611109C05D
:100200009FB7F8948881209582238883EC912E23D0
:100210000BC0623061F49FB7F8948881322F30951B
:1002200083238883EC912E2B2C939FBF06C08FB71E
:10023000F894E8812E2B28838FBFDF91CF9108950A
:100240001F93CF93DF93182FEB0161E00E94E4002E
:10025000209711F460E004C0CF3FD10539F461E08C
:10026000812FDF91CF911F910C94B500E12FF0E029
:10027000E255FF4FE491E330F9F048F4E130B9F092
:10028000E230A1F584B5806284BDC8BD34C0E730DA
:10029000E9F0E83019F1E43049F58091800080629E
:1002A00080938000D0938B00C0938A0024C084B5D3
:1002B000806884BDC7BD1FC0809180008068809326
:1002C0008000D0938900C093880015C08091B00051
:1002D00080688093B000C093B3000DC08091B000DF
:1002E00080628093B000C093B40005C0C038D105CF
:1002F0000CF0B5CFAFCFDF91CF911F910895089546
:10030000CF93DF93AC01E091C101F091C20130972E
:10031000F1F09091C0018091BF019817C0F090E07A
:10032000292F30E02617370754F4D901A15DBE4FBD
:10033000EA01C20FD31F28812C939F5FF1CF109247
:10034000C0016093BF01CB01DF91CF910994DF9190
:10035000CF910895CF92DF92EF92FF920F931F9368
:10036000CF93DF936C017A018B01C0E0D0E0CE1512
:10037000DF0581F0D8016D918D01D601ED91FC91E1
:100380000190F081E02DC6010995892B11F021968D
:10039000EECF7E01C701DF91CF911F910F91FF90AA
:1003A000EF90DF90CF900895FC01538D448D252F61
:1003B00030E0842F90E0821B930B541710F0CF96FF
:1003C000089501970895FC01918D828D981761F031
:1003D000828DDF01A80FB11D5D968C91928D9F5F7C
:1003E0009F73928F90E008958FEF9FEF0895FC0127
:1003F000918D828D981731F0828DE80FF11D858DDA
:1004000090E008958FEF9FEF0895FC01918D228D6C
:10041000892F90E0805C9F4F821B91098F739927F1
:1004200008958CEC91E00E94050221E0892B09F4EB
:1004300020E0822F0895FC01848DDF01A80FB11DFB
:10044000A35ABF4F2C91848D90E001968F7399270A
:10045000848FA689B7892C93A089B1898C918370E8
:1004600080648C93938D848D981306C00288F389E1
:10047000E02D80818F7D80830895EF92FF920F930E
:100480001F93CF93DF93EC0181E0888F9B8D8C8D40
:10049000981305C0E889F989808185FD26C0F62E6C
:1004A0000B8D10E00F5F1F4F0F731127E02E8C8D07
:1004B000E8120CC00FB607FCFACFE889F9898081F1
:1004C00085FFF5CFCE010E941B02F1CF8B8DFE017F
:1004D000E80FF11DE35AFF4FF0829FB7F8940B8F9E
:1004E000EA89FB89808180620AC09FB7F894EE890F
:1004F000FF896083E889F9898081837080648083C3
:100500009FBF81E090E0DF91CF911F910F91FF900D
:10051000EF900895CF93DF93EC01888D8823C9F085
:10052000EA89FB89808185FD05C0A889B9898C91FC
:1005300086FD0FC00FB607FCF5CF808185FFF2CF97
:10054000A889B9898C9185FFEDCFCE010E941B024D
:10055000E7CFDF91CF91089580E090E0892B29F0DB
:100560000E94110281110C940000089585ED809382
:10057000BC008091BC0084FDFCCF1092BC010895AA
:1005800040916F01262F30E0240F311D21323105BB
:10059000DCF42091BC012430C9F4FC0180E090E03F
:1005A000861758F430916F012191DC01A15BBE4F99
:1005B000A30FB11D2C930196F3CF80916F01680FAB
:1005C00060936F0180E0089581E0089582E00895CE
:1005D0000895E091C0018091BF01E81730F4F0E088
:1005E000E15DFE4F808190E008958FEF9FEF0895C9
:1005F0009091C0018091BF01981750F4E92FF0E06D
:10060000E15DFE4F208130E09F5F9093C00102C00A
:100610002FEF3FEFC90108958091BF0190E0209135
:10062000C001821B91090895CF93DF93CB01EA01AA
:10063000642F0E94C002CE01DF91CF910895CF9325
:10064000DF931F92CDB7DEB7698361E0CE010196DB
:100650000E94C00281E090E00F90DF91CF91089559
:10066000089580E090E008958F929F92AF92BF929C
:100670000F931F93CF93DF93CDB7DEB7A1970FB63C
:10068000F894DEBF0FBECDBF19A2423008F44AE095
:100690008E010F5D1F4F842E912CA12CB12CA50132
:1006A00094010E946308E62FB901CA0101501109A3
:1006B000EA3014F4E05D01C0E95CD801EC93232B2F
:1006C000242B252B61F70115110571F0F80101901C
:1006D0000020E9F73197AF01401B510BB8018CECBA
:1006E00091E00E94AA0102C080E090E0A1960FB6BE
:1006F000F894DEBF0FBECDBFDF91CF911F910F9158
:10070000BF90AF909F908F90089542E050E068E2D4
:1007100071E08CEC91E00C94AA010E94AD08CF929C
:10072000DF92EF92FF92CF93DF930E948503809137
:10073000BF0190E02091C001821B91091816190693
:1007400014F589E692E00E94F802909303018093E9
:1007500002016C01990FEE08FF08F7FE0EC06DE272
:100760008CEC91E00E943D0266277727CB016C1943
:100770007D098E099F094AE003C04AE0C701B6011E
:100780000E943403D2CFA0910201B09103012FEF58
:1007900030E00E94A0082FEF33E040E050E00E94DC
:1007A000440869017A013093010120930001EBEBC9
:1007B000F0E08491E7EAF0E0D491E3E9F0E0C4915D
:1007C000CC23A1F081110E948C00EC2FF0E0EE0F01
:1007D000FF1FE859FF4FA591B491EC91ED2331E053
:1007E00020E009F430E0832F922F02C080E090E0F7
:1007F00090932D0180932C01B601892B71F483E035
:100800000E94200161E082E00E94B50060E085E086
:100810000E94B50060E084E00DC085E00E942001E8
:1008200061E084E00E94B50060E083E00E94B500D2
:1008300060E082E0DF91CF91FF90EF90DF90CF906A
:100840000C94B5001F920F920FB60F9211242F93A4
:100850003F938F939F93AF93BF938091C8019091E3
:10086000C901A091CA01B091CB013091C70123E029
:10087000230F2D3720F40196A11DB11D05C026E8D8
:10088000230F0296A11DB11D2093C7018093C801BB
:100890009093C901A093CA01B093CB018091C30189
:1008A0009091C401A091C501B091C6010196A11D0E
:1008B000B11D8093C3019093C401A093C501B0936F
:1008C000C601BF91AF919F918F913F912F910F9052
:1008D0000FBE0F901F9018951F920F920FB60F9298
:1008E00011242F933F934F935F936F937F938F9335
:1008F0009F93AF93BF93EF93FF938CEC91E00E9493
:100900001B02FF91EF91BF91AF919F918F917F91CA
:100910006F915F914F913F912F910F900FBE0F906C
:100920001F9018951F920F920FB60F9211242F93BC
:100930008F939F93EF93FF93E091DC01F091DD01A2
:100940008081E091E201F091E30182FD12C090818B
:100950008091E5018F5F8F732091E601821751F03E
:10096000E091E501F0E0E453FE4F958F8093E501BF
:1009700001C08081FF91EF919F918F912F910F90F6
:100980000FBE0F901F9018951F920F920FB60F92E7
:1009900011242F933F934F935F936F937F938F9384
:1009A0009F93AF93BF93EF93FF938091B900887F9C
:1009B000803609F49CC068F5883209F45BC090F475
:1009C000803109F454C038F4882309F4F6C0883023
:1009D00009F44DC0F6C0883109F44CC0803209F4E6
:1009E0005DC0EFC0803409F468C048F4803309F476
:1009F00055C0883309F0E5C080939201D8C0803596
:100A000009F44FC0883509F45DC0883409F0D9C0B5
:100A1000D6C0883909F4C7C0A8F4883709F467C07C
:100A200038F4883609F463C0803709F460C0C9C05F
:100A3000883809F4B8C0803909F45FC0803809F0FB
:100A4000C0C05BC0803B09F486C038F4803A09F42A
:100A500066C0883A09F47FC0B4C0803C09F4A7C0DE
:100A6000883C09F4A4C0883B09F48AC0AAC08091DC
:100A7000B50110C09091B4018091B301981770F541
:100A8000E091B40181E08E0F8093B401F0E0ED5667
:100A9000FE4F80818093BB0085EC86C080939201DD
:100AA0008EC0E091B40181E08E0F8093B4018091FB
:100AB000BB00F0E0ED56FE4F80839091B401809131
:100AC000B3016EC0E091B40181E08E0F8093B40158
:100AD0008091BB00F0E0ED56FE4F80838091BB011A
:100AE00081116DC081E08093BA0184EA61C083E026
:100AF0008093BC0110929101CFCF809191018032FF
:100B000008F051C0E091910181E08E0F8093910136
:100B10008091BB00F0E0EF58FE4F8083BDCF85ECA5
:100B20008093BC001092BC0180919101803230F41E
:100B3000E0919101F0E0EF58FE4F10826091910139
:100B400070E0E091B601F091B70181E791E009957D
:100B50001092910136C084E08093BC011092700124
:100B600010926F01E091B801F091B901099580915F
:100B70006F01811105C081E080936F0110924F01D8
:100B8000E091700181E08E0F80937001F0E0E15BF5
:100B9000FE4F80818093BB009091700180916F0126
:100BA000981708F479CF85E88093BC000AC085ECDB
:100BB0008093BC001092BC0104C0109292010E946C
:100BC000B602FF91EF91BF91AF919F918F917F916D
:100BD0006F915F914F913F912F910F900FBE0F90AA
:100BE0001F9018951F920F920FB60F9211242F93FA
:100BF0003F934F935F936F937F938F939F93AF93A5
:100C0000BF93EF93FF9380912E0187FF05C0109251
:100C10008500109284001BC020912E01022E000C32
:100C2000330B8091990290E02817390784F4809162
:100C30002E01082E000C990BFC01EE0FFF1F8E0FEA
:100C40009F1FFC01EB58FD4F808186FD15C08091F0
:100C50002E018F5F80932E0120912E01022E000C19
:100C6000330B8091990290E028173907C4F48091E2
:100C70002E018C3064F113C080912E01082E000CDF
:100C8000990BFC01EE0FFF1F8E0F9F1FFC01EB580D
:100C9000FD4F808160E08F730E94B500D8CF8091B6
:100CA000840090918500049680349C4918F480E477
:100CB0009CE905C0809184009091850004969093F2
:100CC0008900809388008FEF80932E013BC0209194
:100CD00084003091850080912E01082E000C990B24
:100CE000FC01EE0FFF1F8E0F9F1FFC01EB58FD4F05
:100CF00081819281820F931F909389008093880055
:100D000080912E01082E000C990BFC01EE0FFF1FA5
:100D10008E0F9F1FFC01EB58FD4F808186FF12C094
:100D200080912E01082E000C990BFC01EE0FFF1F85
:100D30008E0F9F1FFC01EB58FD4F808161E08F7388
:100D40000E94B500FF91EF91BF91AF919F918F915C
:100D50007F916F915F914F913F912F910F900FBEB7
:100D60000F901F9018951092CF011092CE0188EE2F
:100D700093E0A0E0B0E08093D0019093D101A093E4
:100D8000D201B093D30128E031E03093CD0120931C
:100D9000CC0125EC30E03093D9012093D80124EC2C
:100DA00030E03093DB012093DA0120EC30E0309327
:100DB000DD012093DC0121EC30E03093DF01209352
:100DC000DE0122EC30E03093E1012093E00126ECDB
:100DD00030E03093E3012093E2011092E50110929C
:100DE000E6011092E7011092E80110926C02109255
:100DF0006B0280936D0290936E02A0936F02B0938A
:100E000070028AE191E090936A0280936902809176
:100E100099028C30A0F491E0980F909399028093FE
:100E20009A0290E0FC01EE0FFF1F8E0F9F1FFC0146
:100E3000EB58FD4F88EB9BE09283818308958FEF01
:100E400080939A020895789484B5826084BD84B5B5
:100E5000816084BD85B5826085BD85B5816085BDB5
:100E600080916E00816080936E001092810080916D
:100E700081008260809381008091810081608093F5
:100E80008100809180008160809380008091B1001A
:100E900084608093B1008091B00081608093B00045
:100EA00080917A00846080937A0080917A008260D9
:100EB00080937A0080917A00816080937A0080919B
:100EC0007A00806880937A001092C10080919A0223
:100ED0008C3008F051C061E089E00E94E40080910C
:100EE0009A02E82FF0E09F01220F331FE20FF31F59
:100EF000EB58FD4F9081907C9960908310929B02FB
:100F000010929C026CE00E9494089CE0899FB001C2
:100F1000112440E050E09B01240F351FF901EE0F32
:100F2000FF1F2E0F3F1FF901EB58FD4F908196FDDB
:100F300016C04F5F5F4F4C30510569F781110FC0EC
:100F40001092800082E080938100109285001092C0
:100F50008400B19A80916F00826080936F00E0916D
:100F60009A02F0E0CF01880F991FE80FF91FEB58A4
:100F7000FD4F80818064808360E08DE00E94E4000A
:100F800061E085E00E94E40061E084E00E94E4000A
:100F900061E083E00E94E40061E082E00E94E400FE
:100FA0001092C0011092BF011092BE011092BD01BB
:100FB0001092BC0181E08093BB011092BA0161E004
:100FC00082E10E94B50061E083E10E94B50080915A
:100FD000B9008E7F8093B9008091B9008D7F809396
:100FE000B90088E48093B80085E48093BC008FE763
:100FF00091E09093B9018093B80180E891E09093DB
:10100000B7018093B60182E28093BA008FE893E043
:101010009093C2018093C101E091DC01F091DD0168
:1010200082E08083E091D801F091D9011082E091B3
:10103000DA01F091DB018FEC80831092E401E09102
:10104000E001F091E10186E08083E091DE01F09122
:10105000DF01808180618083E091DE01F091DF011A
:10106000808188608083E091DE01F091DF018081E2
:1010700080688083E091DE01F091DF0180818F7DC7
:1010800080830E94AC02FDCF052E97FB1EF40094D6
:101090000E945B0857FD07D00E94630807FC03D03D
:1010A0004EF40C945B0850954095309521953F4F38
:1010B0004F4F5F4F089590958095709561957F4F44
:1010C0008F4F9F4F0895A1E21A2EAA1BBB1BFD0153
:1010D0000DC0AA1FBB1FEE1FFF1FA217B307E40717
:1010E000F50720F0A21BB30BE40BF50B661F771F6F
:1010F000881F991F1A9469F760957095809590954F
:101100009B01AC01BD01CF010895A29FB001B39F27
:10111000C001A39F700D811D1124911DB29F700D00
:10112000811D1124911D0895991B79E004C0991F18
:10113000961708F0961B881F7A95C9F78095089531
:101140000E948508B7FF0895821B930B0895EE0F48
:10115000FF1F0590F491E02D099481E090E0F89450
:081160000C94B208F894FFCFD3
:10116800FFFFFFFF000000003D02AA01D4018A0230
:101178000502E301F701000000001F031403310317
:0C118800E8020C03F802E9020D0A000066
:107E0000112484B714BE81FFF0D085E080938100F7
:107E100082E08093C00088E18093C10086E0809377
:107E2000C20080E18093C4008EE0C9D0259A86E02C
:107E300020E33CEF91E0309385002093840096BBD3
:107E4000B09BFECF1D9AA8958150A9F7CC24DD24C4
:107E500088248394B5E0AB2EA1E19A2EF3E0BF2EE7
:107E6000A2D0813461F49FD0082FAFD0023811F036
:107E7000013811F484E001C083E08DD089C08234E0
:107E800011F484E103C0853419F485E0A6D080C0E4
:107E9000853579F488D0E82EFF2485D0082F10E0AE
:107EA000102F00270E291F29000F111F8ED06801E7
:107EB0006FC0863521F484E090D080E0DECF843638
:107EC00009F040C070D06FD0082F6DD080E0C81688
:107ED00080E7D80618F4F601B7BEE895C0E0D1E017
:107EE00062D089930C17E1F7F0E0CF16F0E7DF06D8
:107EF00018F0F601B7BEE89568D007B600FCFDCFD4
:107F0000A601A0E0B1E02C9130E011968C91119780
:107F100090E0982F8827822B932B1296FA010C0160
:107F200087BEE89511244E5F5F4FF1E0A038BF0790
:107F300051F7F601A7BEE89507B600FCFDCF97BE46
:107F4000E89526C08437B1F42ED02DD0F82E2BD052
:107F50003CD0F601EF2C8F010F5F1F4F84911BD097
:107F6000EA94F801C1F70894C11CD11CFA94CF0C13
:107F7000D11C0EC0853739F428D08EE10CD085E9AC
:107F80000AD08FE07ACF813511F488E018D01DD067
:107F900080E101D065CF982F8091C00085FFFCCF94
:107FA0009093C60008958091C00087FFFCCF809118
:107FB000C00084FD01C0A8958091C6000895E0E648
:107FC000F0E098E1908380830895EDDF803219F02E
:107FD00088E0F5DFFFCF84E1DECF1F93182FE3DFCA
:107FE0001150E9F7F2DF1F91089580E0E8DFEE27F6
:047FF000FF270994CA
:027FFE00040479
:0400000300007E007B
:00000001FF
