:100000000C9462000C948A000C948A000C948A0070
:100010000C948A000C948A000C948A000C948A0038
:100020000C948A000C948A000C948A000C948A0028
:100030000C948A000C948A000C948A000C948A0018
:100040000C9408030C948A000C9478030C945203CB
:100050000C948A000C948A000C948A000C948A00F8
:100060000C94AA030C948A000000000024002700CE
:100070002A000000000023002600290000000000E4
:10008000250028002B0004040404040404040202D4
:100090000202020203030303030301020408102007
:1000A0004080010204081020010204081020000012
:1000B0000008000201000003040700000000000027
:1000C0000000D80411241FBECFEFD8E0DEBFCDBFA3
:1000D00011E0A0E0B1E0E6E2FDE002C005900D9283
:1000E000A632B107D9F722E0A6E2B1E001C01D9225
:1000F000AC38B207E1F710E0C2E6D0E004C02197C7
:10010000FE010E948606C136D107C9F70E9411057B
:100110000C9491060C940000833081F028F4813017
:1001200099F08230A1F008958730A9F08830B9F0B5
:100130008430D1F4809180008F7D03C08091800055
:100140008F7780938000089584B58F7702C084B53F
:100150008F7D84BD08958091B0008F7703C080911A
:10016000B0008F7D8093B0000895CF93DF93282F48
:1001700030E0F901E255FF4F8491F901E656FF4F57
:10018000D491F901EA57FF4FC491CC2389F0811132
:100190000E948C00EC2FF0E0EE0FFF1FE458FF4FA1
:1001A000A591B4918FB7F894EC91ED2BEC938FBFA0
:1001B000DF91CF9108953FB7F8948091DF0190913E
:1001C000E001A091E101B091E20126B5A89B05C034
:1001D0002F3F19F00196A11DB11D3FBFBA2FA92FC6
:1001E000982F8827820F911DA11DB11DBC01CD0143
:1001F00042E0660F771F881F991F4A95D1F708952F
:100200008F929F92AF92BF92CF92DF92EF92FF9226
:100210006B017C010E94DB004B015C01C114D10425
:10022000E104F104F1F00E94DB00DC01CB0188194C
:100230009909AA09BB09883E9340A105B10570F34D
:1002400021E0C21AD108E108F10888EE880E83E0A7
:10025000981EA11CB11CC114D104E104F10419F7CA
:10026000DDCFFF90EF90DF90CF90BF90AF909F9049
:100270008F90089508950895CF92DF92EF92FF92A4
:100280000F931F93CF93DF936C017A018B01C0E032
:10029000D0E0CE15DF0581F0D8016D918D01D6013A
:1002A000ED91FC910190F081E02DC6010995892B1B
:1002B00011F02196EECF7E01C701DF91CF911F9102
:1002C0000F91FF90EF90DF90CF900895FC01538D38
:1002D000448D252F30E0842F90E0821B930B541720
:1002E00010F0CF96089501970895FC01918D828DAD
:1002F000981761F0828DDF01A80FB11D5D968C917A
:10030000928D9F5F9F73928F90E008958FEF9FEF84
:100310000895FC01918D828D981731F0828DE80F40
:10032000F11D858D90E008958FEF9FEF0895FC01FA
:10033000918D228D892F90E0805C9F4F821B9109C7
:100340008F739927089583EE91E00E94970121E031
:10035000892B09F420E0822F0895FC01848DDF01B0
:10036000A80FB11DA35ABF4F2C91848D90E0019628
:100370008F739927848FA689B7892C93A089B18917
:100380008C91837080648C93938D848D981306C0B8
:100390000288F389E02D80818F7D80830895EF921C
:1003A000FF920F931F93CF93DF93EC0181E0888F2F
:1003B0009B8D8C8D981305C0E889F989808185FD16
:1003C00026C0F62E0B8D10E00F5F1F4F0F73112705
:1003D000E02E8C8DE8120CC00FB607FCFACFE8892E
:1003E000F989808185FFF5CFCE010E94AD01F1CF63
:1003F0008B8DFE01E80FF11DE35AFF4FF0829FB78E
:10040000F8940B8FEA89FB89808180620AC09FB7CC
:10041000F894EE89FF896083E889F9898081837087
:10042000806480839FBF81E090E0DF91CF911F9136
:100430000F91FF90EF900895CF93DF93EC01888D9B
:100440008823C9F0EA89FB89808185FD05C0A889D8
:10045000B9898C9186FD0FC00FB607FCF5CF80815E
:1004600085FFF2CFA889B9898C9185FFEDCFCE01A8
:100470000E94AD01E7CFDF91CF91089580E090E039
:10048000892B29F00E94A30181110C94000008958A
:1004900085ED8093BC008091BC0084FDFCCF109260
:1004A000B501089540916601262F30E0240F311DDB
:1004B00021323105DCF42091B5012430C9F4FC016E
:1004C00080E090E0861758F4309166012191DC01BC
:1004D000AA5BBE4FA30FB11D2C930196F3CF809161
:1004E0006601680F6093660180E0089581E00895D9
:1004F00082E008950895E0918E0180918D01E817C2
:1005000030F4F0E0EA5DFE4F808190E008958FEFD7
:100510009FEF089590918E0180918D01981750F46E
:10052000E92FF0E0EA5DFE4F208130E09F5F90937D
:100530008E0102C02FEF3FEFC901089580918D0118
:1005400090E020918E01821B91090895CF92DF9255
:10055000EF92FF920F931F93CF93DF937C01CB0118
:100560008A012091B601222389F0EB016B01C40EB0
:10057000D51ECC15DD0569F06991D701ED91FC918F
:100580000190F081E02DC7010995F3CF642F0E94FF
:100590005202C801DF91CF911F910F91FF90EF9010
:1005A000DF90CF900895CF93DF931F92CDB7DEB742
:1005B00069832091B6012223D1F02091D901203204
:1005C00040F021E030E0FC013383228380E090E0C2
:1005D00015C08091B701E82FF0E0E854FE4F9981F3
:1005E00090838F5F8093B7018093D90105C061E04C
:1005F000CE0101960E94520281E090E00F90DF91BF
:10060000CF910895089580E090E008950E948C06AF
:100610001F920F920FB60F9211242F933F938F9337
:100620009F93AF93BF938091DB019091DC01A091E8
:10063000DD01B091DE013091DA0123E0230F2D3787
:1006400020F40196A11DB11D05C026E8230F0296D6
:10065000A11DB11D2093DA018093DB019093DC0191
:10066000A093DD01B093DE018091DF019091E00164
:10067000A091E101B091E2010196A11DB11D80930D
:10068000DF019093E001A093E101B093E201BF91FB
:10069000AF919F918F913F912F910F900FBE0F902F
:1006A0001F9018951F920F920FB60F9211242F933F
:1006B0003F934F935F936F937F938F939F93AF93EA
:1006C000BF93EF93FF9383EE91E00E94AD01FF9102
:1006D000EF91BF91AF919F918F917F916F915F91BA
:1006E0004F913F912F910F900FBE0F901F90189533
:1006F0001F920F920FB60F9211242F938F939F93F7
:10070000EF93FF93E091F301F091F4018081E09188
:10071000F901F091FA0182FD12C090818091FC01F3
:100720008F5F8F732091FD01821751F0E091FC01E2
:10073000F0E0ED51FE4F958F8093FC0101C0808168
:10074000FF91EF919F918F912F910F900FBE0F907E
:100750001F9018951F920F920FB60F9211242F938E
:100760003F934F935F936F937F938F939F93AF9339
:10077000BF93EF93FF938091B900887F803609F48F
:100780009CC068F5883209F45BC090F4803109F4AC
:1007900054C038F4882309F4F6C0883009F44DC0F9
:1007A000F6C0883109F44CC0803209F45DC0EFC056
:1007B000803409F468C048F4803309F455C08833A4
:1007C00009F0E5C08093B301D8C0803509F44FC06B
:1007D000883509F45DC0883409F0D9C0D6C088399D
:1007E00009F4C7C0A8F4883709F467C038F488361C
:1007F00009F463C0803709F460C0C9C0883809F4BF
:10080000B8C0803909F45FC0803809F0C0C05BC04F
:10081000803B09F486C038F4803A09F466C0883A0F
:1008200009F47FC0B4C0803C09F4A7C0883C09F437
:10083000A4C0883B09F48AC0AAC08091900110C06E
:100840009091B2018091B101981770F5E091B201D9
:1008500081E08E0F8093B201F0E0EF56FE4F808171
:100860008093BB0085EC86C08093B3018EC0E0917D
:10087000B20181E08E0F8093B2018091BB00F0E065
:10088000EF56FE4F80839091B2018091B1016EC00E
:10089000E091B20181E08E0F8093B2018091BB00A4
:1008A000F0E0EF56FE4F80838091B40181116DC05E
:1008B00081E080938F0184EA61C083E08093B50179
:1008C00010928801CFCF80918801803208F051C00A
:1008D000E091880181E08E0F809388018091BB00B8
:1008E000F0E0E859FE4F8083BDCF85EC8093BC00DB
:1008F0001092B50180918801803230F4E091880136
:10090000F0E0E859FE4F10826091880170E0E091BC
:100910008901F0918A0188E691E009951092880199
:1009200036C084E08093B501109267011092660191
:10093000E0918B01F0918C01099580916601811104
:1009400005C081E08093660110924601E091670145
:1009500081E08E0F80936701F0E0EA5BFE4F8081BB
:100960008093BB009091670180916601981708F40D
:1009700079CF85E88093BC000AC085EC8093BC00E9
:100980001092B50104C01092B3010E944802FF9179
:10099000EF91BF91AF919F918F917F916F915F91F7
:1009A0004F913F912F910F900FBE0F901F90189570
:1009B000E3EEF1E01382128288EE93E0A0E0B0E073
:1009C00084839583A683B78326E031E03183208337
:1009D00025EC30E03587248724EC30E03787268704
:1009E00020EC30E0318B208B21EC30E0338B228BFC
:1009F00022EC30E0358B248B26EC30E0378B268BD5
:100A0000118E128E138E148EE0E8F2E013821282A1
:100A100084839583A683B78388E191E09183808363
:100A20000895789484B5826084BD84B5816084BD66
:100A300085B5826085BD85B5816085BD80916E007C
:100A4000816080936E0010928100809181008260AD
:100A500080938100809181008160809381008091EA
:100A600080008160809380008091B10084608093D9
:100A7000B1008091B00081608093B00080917A00D5
:100A8000846080937A0080917A00826080937A00FB
:100A900080917A00816080937A0080917A008068EA
:100AA00080937A001092C10010928E0110928D01F5
:100AB0001092B7011092D9011092B50181E0809394
:100AC000B40110928F0182E10E94B50083E10E947F
:100AD000B5008091B9008E7F8093B9008091B900F4
:100AE0008D7F8093B90088E48093B80085E480937B
:100AF000BC008AE391E090938C0180938B018BE39F
:100B000091E090938A0180938901E091F301F09143
:100B1000F40182E08083E091EF01F091F001108216
:100B2000E091F101F091F2018FEC80831092FB01D2
:100B3000E091F701F091F80186E08083E091F50102
:100B4000F091F601808180618083E091F501F09160
:100B5000F601808188608083E091F501F091F601D3
:100B6000808180688083E091F501F091F6018081B9
:100B70008F7D8083C7EAD0E0FE01449103E910E055
:100B8000F80184918823C9F090E0880F991FFC0137
:100B9000E859FF4F25913491FC01E458FF4FA5918E
:100BA000B4915FB7F894F9019081842F80959823D0
:100BB00090838C91842B8C935FBF90E4E92EFF246B
:100BC000F39421E1B22E32E0A32E99249A9445EEBB
:100BD000842E55EC752E6BEBC62E60E0D62EE0927F
:100BE0007C0080917A00806480937A0080917A0002
:100BF00086FDFCCF609178008091790070E0782BC1
:100C00007093010160930001F092B601B092D80197
:100C10001092B7011092D90180E892E00E94D302AD
:100C20009091D901913208F040C08091B5018111B5
:100C3000FCCFA092B501F092B4019092B301109252
:100C4000B2019093B101A8EBB1E0E1E9F1E09817AE
:100C500021F02D9121938F5FFACF10929001809116
:100C6000900182628093900180918F01813069F4BC
:100C700010928F01809190018093BB008091BC0005
:100C800083FDF8CF7092BC0002C08092BC008091BE
:100C9000B5018230E1F38091B3018F3F31F0809153
:100CA000B301803211F08091B3011092B70110921C
:100CB000D9011092B60164EF71E080E090E00E94EB
:100CC0000001F6018491FE016490F80154905520D2
:100CD000B9F081110E948C00E52DF0E0EE0FFF1FAE
:100CE000EE58FF4FA591B4918C91682249F064E1D0
:100CF00070E080E090E00E9400010E943E026FCF11
:100D000061E383EE91E00E94CF01F1CFEE0FFF1F70
:100D10000590F491E02D099481E090E0F8940C9412
:060D20009106F894FFCFDC
:100D2600FFFF00000000CF013C0166011C02970195
:100D36007501890100000000D302A60203037A02AE
:060D46009E028A027B02FE
:00000001FF
